{
  "_format": "hh-sol-artifact-1",
  "contractName": "NftMarketplace",
  "sourceName": "contracts/NftMarketplace.sol",
  "abi": [
    {
      "inputs": [],
      "stateMutability": "nonpayable",
      "type": "constructor"
    },
    {
      "anonymous": false,
      "inputs": [
        {
          "indexed": true,
          "internalType": "address",
          "name": "owner",
          "type": "address"
        },
        {
          "indexed": true,
          "internalType": "address",
          "name": "approved",
          "type": "address"
        },
        {
          "indexed": true,
          "internalType": "uint256",
          "name": "tokenId",
          "type": "uint256"
        }
      ],
      "name": "Approval",
      "type": "event"
    },
    {
      "anonymous": false,
      "inputs": [
        {
          "indexed": true,
          "internalType": "address",
          "name": "owner",
          "type": "address"
        },
        {
          "indexed": true,
          "internalType": "address",
          "name": "operator",
          "type": "address"
        },
        {
          "indexed": false,
          "internalType": "bool",
          "name": "approved",
          "type": "bool"
        }
      ],
      "name": "ApprovalForAll",
      "type": "event"
    },
    {
      "anonymous": false,
      "inputs": [
        {
          "indexed": false,
          "internalType": "uint256",
          "name": "tokenId",
          "type": "uint256"
        },
        {
          "indexed": false,
          "internalType": "address",
          "name": "seller",
          "type": "address"
        },
        {
          "indexed": false,
          "internalType": "address",
          "name": "owner",
          "type": "address"
        },
        {
          "indexed": false,
          "internalType": "uint256",
          "name": "price",
          "type": "uint256"
        },
        {
          "indexed": false,
          "internalType": "bool",
          "name": "sold",
          "type": "bool"
        }
      ],
      "name": "MarketItemCreated",
      "type": "event"
    },
    {
      "anonymous": false,
      "inputs": [
        {
          "indexed": true,
          "internalType": "address",
          "name": "from",
          "type": "address"
        },
        {
          "indexed": true,
          "internalType": "address",
          "name": "to",
          "type": "address"
        },
        {
          "indexed": true,
          "internalType": "uint256",
          "name": "tokenId",
          "type": "uint256"
        }
      ],
      "name": "Transfer",
      "type": "event"
    },
    {
      "inputs": [
        {
          "internalType": "address",
          "name": "to",
          "type": "address"
        },
        {
          "internalType": "uint256",
          "name": "tokenId",
          "type": "uint256"
        }
      ],
      "name": "approve",
      "outputs": [],
      "stateMutability": "nonpayable",
      "type": "function"
    },
    {
      "inputs": [
        {
          "internalType": "address",
          "name": "owner",
          "type": "address"
        }
      ],
      "name": "balanceOf",
      "outputs": [
        {
          "internalType": "uint256",
          "name": "",
          "type": "uint256"
        }
      ],
      "stateMutability": "view",
      "type": "function"
    },
    {
      "inputs": [
        {
          "internalType": "uint256",
          "name": "tokenId",
          "type": "uint256"
        }
      ],
      "name": "createMarketSale",
      "outputs": [],
      "stateMutability": "payable",
      "type": "function"
    },
    {
      "inputs": [
        {
          "internalType": "string",
          "name": "tokenUri",
          "type": "string"
        },
        {
          "internalType": "uint256",
          "name": "price",
          "type": "uint256"
        }
      ],
      "name": "createToken",
      "outputs": [
        {
          "internalType": "uint256",
          "name": "",
          "type": "uint256"
        }
      ],
      "stateMutability": "payable",
      "type": "function"
    },
    {
      "inputs": [],
      "name": "fetchMarketItems",
      "outputs": [
        {
          "components": [
            {
              "internalType": "uint256",
              "name": "tokenId",
              "type": "uint256"
            },
            {
              "internalType": "address payable",
              "name": "seller",
              "type": "address"
            },
            {
              "internalType": "address payable",
              "name": "owner",
              "type": "address"
            },
            {
              "internalType": "uint256",
              "name": "price",
              "type": "uint256"
            },
            {
              "internalType": "bool",
              "name": "sold",
              "type": "bool"
            }
          ],
          "internalType": "struct NftMarketplace.MarketItem[]",
          "name": "",
          "type": "tuple[]"
        }
      ],
      "stateMutability": "view",
      "type": "function"
    },
    {
      "inputs": [],
      "name": "fetchNftsListed",
      "outputs": [
        {
          "components": [
            {
              "internalType": "uint256",
              "name": "tokenId",
              "type": "uint256"
            },
            {
              "internalType": "address payable",
              "name": "seller",
              "type": "address"
            },
            {
              "internalType": "address payable",
              "name": "owner",
              "type": "address"
            },
            {
              "internalType": "uint256",
              "name": "price",
              "type": "uint256"
            },
            {
              "internalType": "bool",
              "name": "sold",
              "type": "bool"
            }
          ],
          "internalType": "struct NftMarketplace.MarketItem[]",
          "name": "",
          "type": "tuple[]"
        }
      ],
      "stateMutability": "view",
      "type": "function"
    },
    {
      "inputs": [],
      "name": "fetchUserNfts",
      "outputs": [
        {
          "components": [
            {
              "internalType": "uint256",
              "name": "tokenId",
              "type": "uint256"
            },
            {
              "internalType": "address payable",
              "name": "seller",
              "type": "address"
            },
            {
              "internalType": "address payable",
              "name": "owner",
              "type": "address"
            },
            {
              "internalType": "uint256",
              "name": "price",
              "type": "uint256"
            },
            {
              "internalType": "bool",
              "name": "sold",
              "type": "bool"
            }
          ],
          "internalType": "struct NftMarketplace.MarketItem[]",
          "name": "",
          "type": "tuple[]"
        }
      ],
      "stateMutability": "view",
      "type": "function"
    },
    {
      "inputs": [
        {
          "internalType": "uint256",
          "name": "tokenId",
          "type": "uint256"
        }
      ],
      "name": "getApproved",
      "outputs": [
        {
          "internalType": "address",
          "name": "",
          "type": "address"
        }
      ],
      "stateMutability": "view",
      "type": "function"
    },
    {
      "inputs": [],
      "name": "getListingPrice",
      "outputs": [
        {
          "internalType": "uint256",
          "name": "",
          "type": "uint256"
        }
      ],
      "stateMutability": "view",
      "type": "function"
    },
    {
      "inputs": [
        {
          "internalType": "address",
          "name": "owner",
          "type": "address"
        },
        {
          "internalType": "address",
          "name": "operator",
          "type": "address"
        }
      ],
      "name": "isApprovedForAll",
      "outputs": [
        {
          "internalType": "bool",
          "name": "",
          "type": "bool"
        }
      ],
      "stateMutability": "view",
      "type": "function"
    },
    {
      "inputs": [],
      "name": "name",
      "outputs": [
        {
          "internalType": "string",
          "name": "",
          "type": "string"
        }
      ],
      "stateMutability": "view",
      "type": "function"
    },
    {
      "inputs": [
        {
          "internalType": "uint256",
          "name": "tokenId",
          "type": "uint256"
        }
      ],
      "name": "ownerOf",
      "outputs": [
        {
          "internalType": "address",
          "name": "",
          "type": "address"
        }
      ],
      "stateMutability": "view",
      "type": "function"
    },
    {
      "inputs": [
        {
          "internalType": "uint256",
          "name": "tokenId",
          "type": "uint256"
        },
        {
          "internalType": "uint256",
          "name": "price",
          "type": "uint256"
        }
      ],
      "name": "resellToken",
      "outputs": [],
      "stateMutability": "payable",
      "type": "function"
    },
    {
      "inputs": [
        {
          "internalType": "address",
          "name": "from",
          "type": "address"
        },
        {
          "internalType": "address",
          "name": "to",
          "type": "address"
        },
        {
          "internalType": "uint256",
          "name": "tokenId",
          "type": "uint256"
        }
      ],
      "name": "safeTransferFrom",
      "outputs": [],
      "stateMutability": "nonpayable",
      "type": "function"
    },
    {
      "inputs": [
        {
          "internalType": "address",
          "name": "from",
          "type": "address"
        },
        {
          "internalType": "address",
          "name": "to",
          "type": "address"
        },
        {
          "internalType": "uint256",
          "name": "tokenId",
          "type": "uint256"
        },
        {
          "internalType": "bytes",
          "name": "_data",
          "type": "bytes"
        }
      ],
      "name": "safeTransferFrom",
      "outputs": [],
      "stateMutability": "nonpayable",
      "type": "function"
    },
    {
      "inputs": [
        {
          "internalType": "address",
          "name": "operator",
          "type": "address"
        },
        {
          "internalType": "bool",
          "name": "approved",
          "type": "bool"
        }
      ],
      "name": "setApprovalForAll",
      "outputs": [],
      "stateMutability": "nonpayable",
      "type": "function"
    },
    {
      "inputs": [
        {
          "internalType": "bytes4",
          "name": "interfaceId",
          "type": "bytes4"
        }
      ],
      "name": "supportsInterface",
      "outputs": [
        {
          "internalType": "bool",
          "name": "",
          "type": "bool"
        }
      ],
      "stateMutability": "view",
      "type": "function"
    },
    {
      "inputs": [],
      "name": "symbol",
      "outputs": [
        {
          "internalType": "string",
          "name": "",
          "type": "string"
        }
      ],
      "stateMutability": "view",
      "type": "function"
    },
    {
      "inputs": [
        {
          "internalType": "uint256",
          "name": "tokenId",
          "type": "uint256"
        }
      ],
      "name": "tokenURI",
      "outputs": [
        {
          "internalType": "string",
          "name": "",
          "type": "string"
        }
      ],
      "stateMutability": "view",
      "type": "function"
    },
    {
      "inputs": [
        {
          "internalType": "address",
          "name": "from",
          "type": "address"
        },
        {
          "internalType": "address",
          "name": "to",
          "type": "address"
        },
        {
          "internalType": "uint256",
          "name": "tokenId",
          "type": "uint256"
        }
      ],
      "name": "transferFrom",
      "outputs": [],
      "stateMutability": "nonpayable",
      "type": "function"
    },
    {
      "inputs": [
        {
          "internalType": "uint256",
          "name": "listingFee",
          "type": "uint256"
        }
      ],
      "name": "updateListingFee",
      "outputs": [],
      "stateMutability": "payable",
      "type": "function"
    }
  ],
  "bytecode": "0x60806040526658d15e176280006009553480156200001c57600080fd5b506040518060400160405280600981526020017f4f776e657246616e7300000000000000000000000000000000000000000000008152506040518060400160405280600281526020017f4f460000000000000000000000000000000000000000000000000000000000008152508160009080519060200190620000a192919062000104565b508060019080519060200190620000ba92919062000104565b50505033600a60006101000a81548173ffffffffffffffffffffffffffffffffffffffff021916908373ffffffffffffffffffffffffffffffffffffffff16021790555062000219565b8280546200011290620001b4565b90600052602060002090601f01602090048101928262000136576000855562000182565b82601f106200015157805160ff191683800117855562000182565b8280016001018555821562000182579182015b828111156200018157825182559160200191906001019062000164565b5b50905062000191919062000195565b5090565b5b80821115620001b057600081600090555060010162000196565b5090565b60006002820490506001821680620001cd57607f821691505b60208210811415620001e457620001e3620001ea565b5b50919050565b7f4e487b7100000000000000000000000000000000000000000000000000000000600052602260045260246000fd5b61418480620002296000396000f3fe60806040526004361061012a5760003560e01c806372b3b620116100ab578063c87b56dd1161006f578063c87b56dd146103e8578063cb6588b414610425578063d58a899e14610450578063e219fc751461047b578063e985e9c514610497578063f79d91ae146104d45761012a565b806372b3b6201461031f57806395d89b411461034f578063a22cb4651461037a578063b88d4fde146103a3578063be9af536146103cc5761012a565b806312e85585116100f257806312e855851461022857806323b872dd1461025357806342842e0e1461027c5780636352211e146102a557806370a08231146102e25761012a565b806301ffc9a71461012f57806306fdde031461016c578063081812fc14610197578063095ea7b3146101d45780630f08efe0146101fd575b600080fd5b34801561013b57600080fd5b5061015660048036038101906101519190612cb6565b6104f0565b604051610163919061334b565b60405180910390f35b34801561017857600080fd5b506101816105d2565b60405161018e9190613366565b60405180910390f35b3480156101a357600080fd5b506101be60048036038101906101b99190612d5c565b610664565b6040516101cb91906132c2565b60405180910390f35b3480156101e057600080fd5b506101fb60048036038101906101f69190612c7a565b6106e9565b005b34801561020957600080fd5b50610212610801565b60405161021f9190613329565b60405180910390f35b34801561023457600080fd5b5061023d610844565b60405161024a9190613648565b60405180910390f35b34801561025f57600080fd5b5061027a60048036038101906102759190612b74565b61084e565b005b34801561028857600080fd5b506102a3600480360381019061029e9190612b74565b6108ae565b005b3480156102b157600080fd5b506102cc60048036038101906102c79190612d5c565b6108ce565b6040516102d991906132c2565b60405180910390f35b3480156102ee57600080fd5b5061030960048036038101906103049190612b0f565b610980565b6040516103169190613648565b60405180910390f35b61033960048036038101906103349190612d08565b610a38565b6040516103469190613648565b60405180910390f35b34801561035b57600080fd5b50610364610a7a565b6040516103719190613366565b60405180910390f35b34801561038657600080fd5b506103a1600480360381019061039c9190612c3e565b610b0c565b005b3480156103af57600080fd5b506103ca60048036038101906103c59190612bc3565b610b22565b005b6103e660048036038101906103e19190612d5c565b610b84565b005b3480156103f457600080fd5b5061040f600480360381019061040a9190612d5c565b610dbc565b60405161041c9190613366565b60405180910390f35b34801561043157600080fd5b5061043a610f0e565b6040516104479190613329565b60405180910390f35b34801561045c57600080fd5b50610465611247565b6040516104729190613329565b60405180910390f35b61049560048036038101906104909190612d85565b61130e565b005b3480156104a357600080fd5b506104be60048036038101906104b99190612b38565b611503565b6040516104cb919061334b565b60405180910390f35b6104ee60048036038101906104e99190612d5c565b611597565b005b60007f80ac58cd000000000000000000000000000000000000000000000000000000007bffffffffffffffffffffffffffffffffffffffffffffffffffffffff1916827bffffffffffffffffffffffffffffffffffffffffffffffffffffffff191614806105bb57507f5b5e139f000000000000000000000000000000000000000000000000000000007bffffffffffffffffffffffffffffffffffffffffffffffffffffffff1916827bffffffffffffffffffffffffffffffffffffffffffffffffffffffff1916145b806105cb57506105ca82611631565b5b9050919050565b6060600080546105e19061393c565b80601f016020809104026020016040519081016040528092919081815260200182805461060d9061393c565b801561065a5780601f1061062f5761010080835404028352916020019161065a565b820191906000526020600020905b81548152906001019060200180831161063d57829003601f168201915b5050505050905090565b600061066f8261169b565b6106ae576040517f08c379a00000000000000000000000000000000000000000000000000000000081526004016106a590613568565b60405180910390fd5b6004600083815260200190815260200160002060009054906101000a900473ffffffffffffffffffffffffffffffffffffffff169050919050565b60006106f4826108ce565b90508073ffffffffffffffffffffffffffffffffffffffff168373ffffffffffffffffffffffffffffffffffffffff161415610765576040517f08c379a000000000000000000000000000000000000000000000000000000000815260040161075c906135c8565b60405180910390fd5b8073ffffffffffffffffffffffffffffffffffffffff16610784611707565b73ffffffffffffffffffffffffffffffffffffffff1614806107b357506107b2816107ad611707565b611503565b5b6107f2576040517f08c379a00000000000000000000000000000000000000000000000000000000081526004016107e9906134a8565b60405180910390fd5b6107fc838361170f565b505050565b6060600061080f60076117c8565b9050600061081d60086117c8565b61082760076117c8565b6108319190613840565b905061083d82826117d6565b9250505090565b6000600954905090565b61085f610859611707565b82611a5c565b61089e576040517f08c379a0000000000000000000000000000000000000000000000000000000008152600401610895906135e8565b60405180910390fd5b6108a9838383611b3a565b505050565b6108c983838360405180602001604052806000815250610b22565b505050565b6000806002600084815260200190815260200160002060009054906101000a900473ffffffffffffffffffffffffffffffffffffffff169050600073ffffffffffffffffffffffffffffffffffffffff168173ffffffffffffffffffffffffffffffffffffffff161415610977576040517f08c379a000000000000000000000000000000000000000000000000000000000815260040161096e906134e8565b60405180910390fd5b80915050919050565b60008073ffffffffffffffffffffffffffffffffffffffff168273ffffffffffffffffffffffffffffffffffffffff1614156109f1576040517f08c379a00000000000000000000000000000000000000000000000000000000081526004016109e8906134c8565b60405180910390fd5b600360008373ffffffffffffffffffffffffffffffffffffffff1673ffffffffffffffffffffffffffffffffffffffff168152602001908152602001600020549050919050565b6000610a446007611da1565b6000610a5060076117c8565b9050610a5c3382611db7565b610a668185611dd5565b610a708184611e49565b8091505092915050565b606060018054610a899061393c565b80601f0160208091040260200160405190810160405280929190818152602001828054610ab59061393c565b8015610b025780601f10610ad757610100808354040283529160200191610b02565b820191906000526020600020905b815481529060010190602001808311610ae557829003601f168201915b5050505050905090565b610b1e610b17611707565b838361204d565b5050565b610b33610b2d611707565b83611a5c565b610b72576040517f08c379a0000000000000000000000000000000000000000000000000000000008152600401610b69906135e8565b60405180910390fd5b610b7e848484846121ba565b50505050565b6000600b6000838152602001908152602001600020600301549050803414610be1576040517f08c379a0000000000000000000000000000000000000000000000000000000008152600401610bd890613388565b60405180910390fd5b33600b600084815260200190815260200160002060020160006101000a81548173ffffffffffffffffffffffffffffffffffffffff021916908373ffffffffffffffffffffffffffffffffffffffff1602179055506001600b600084815260200190815260200160002060040160006101000a81548160ff0219169083151502179055506000600b600084815260200190815260200160002060010160006101000a81548173ffffffffffffffffffffffffffffffffffffffff021916908373ffffffffffffffffffffffffffffffffffffffff160217905550610cc56008611da1565b610cd0303384611b3a565b600a60009054906101000a900473ffffffffffffffffffffffffffffffffffffffff1673ffffffffffffffffffffffffffffffffffffffff166108fc6009549081150290604051600060405180830381858888f19350505050158015610d3a573d6000803e3d6000fd5b50600b600083815260200190815260200160002060010160009054906101000a900473ffffffffffffffffffffffffffffffffffffffff1673ffffffffffffffffffffffffffffffffffffffff166108fc349081150290604051600060405180830381858888f19350505050158015610db7573d6000803e3d6000fd5b505050565b6060610dc78261169b565b610e06576040517f08c379a0000000000000000000000000000000000000000000000000000000008152600401610dfd90613548565b60405180910390fd5b6000600660008481526020019081526020016000208054610e269061393c565b80601f0160208091040260200160405190810160405280929190818152602001828054610e529061393c565b8015610e9f5780601f10610e7457610100808354040283529160200191610e9f565b820191906000526020600020905b815481529060010190602001808311610e8257829003601f168201915b505050505090506000610eb0612216565b9050600081511415610ec6578192505050610f09565b600082511115610efb578082604051602001610ee392919061329e565b60405160208183030381529060405292505050610f09565b610f048461222d565b925050505b919050565b60606000610f1c60076117c8565b90506000805b82811015610fc3573373ffffffffffffffffffffffffffffffffffffffff16600b6000600184610f5291906137b9565b815260200190815260200160002060010160009054906101000a900473ffffffffffffffffffffffffffffffffffffffff1673ffffffffffffffffffffffffffffffffffffffff161415610fb057600182610fad91906137b9565b91505b8080610fbb9061399f565b915050610f22565b506000808267ffffffffffffffff811115611007577f4e487b7100000000000000000000000000000000000000000000000000000000600052604160045260246000fd5b60405190808252806020026020018201604052801561104057816020015b61102d6128d6565b8152602001906001900390816110255790505b50905060005b8481101561123c573373ffffffffffffffffffffffffffffffffffffffff16600b600060018461107691906137b9565b815260200190815260200160002060010160009054906101000a900473ffffffffffffffffffffffffffffffffffffffff1673ffffffffffffffffffffffffffffffffffffffff1614156112295760006001826110d391906137b9565b90506000600b60008381526020019081526020016000209050806040518060a0016040529081600082015481526020016001820160009054906101000a900473ffffffffffffffffffffffffffffffffffffffff1673ffffffffffffffffffffffffffffffffffffffff1673ffffffffffffffffffffffffffffffffffffffff1681526020016002820160009054906101000a900473ffffffffffffffffffffffffffffffffffffffff1673ffffffffffffffffffffffffffffffffffffffff1673ffffffffffffffffffffffffffffffffffffffff168152602001600382015481526020016004820160009054906101000a900460ff16151515158152505084868151811061120c577f4e487b7100000000000000000000000000000000000000000000000000000000600052603260045260246000fd5b602002602001018190525060018561122491906137b9565b945050505b80806112349061399f565b915050611046565b508094505050505090565b6060600061125560076117c8565b90506000805b828110156112fc573373ffffffffffffffffffffffffffffffffffffffff16600b600060018461128b91906137b9565b815260200190815260200160002060020160009054906101000a900473ffffffffffffffffffffffffffffffffffffffff1673ffffffffffffffffffffffffffffffffffffffff1614156112e9576001826112e691906137b9565b91505b80806112f49061399f565b91505061125b565b5061130781836117d6565b9250505090565b3373ffffffffffffffffffffffffffffffffffffffff16600b600084815260200190815260200160002060020160009054906101000a900473ffffffffffffffffffffffffffffffffffffffff1673ffffffffffffffffffffffffffffffffffffffff16146113b2576040517f08c379a00000000000000000000000000000000000000000000000000000000081526004016113a9906135a8565b60405180910390fd5b60095434146113f6576040517f08c379a00000000000000000000000000000000000000000000000000000000081526004016113ed90613428565b60405180910390fd5b6000600b600084815260200190815260200160002060040160006101000a81548160ff02191690831515021790555080600b60008481526020019081526020016000206003018190555033600b600084815260200190815260200160002060010160006101000a81548173ffffffffffffffffffffffffffffffffffffffff021916908373ffffffffffffffffffffffffffffffffffffffff16021790555030600b600084815260200190815260200160002060020160006101000a81548173ffffffffffffffffffffffffffffffffffffffff021916908373ffffffffffffffffffffffffffffffffffffffff1602179055506114f460086122d4565b6114ff333084611b3a565b5050565b6000600560008473ffffffffffffffffffffffffffffffffffffffff1673ffffffffffffffffffffffffffffffffffffffff16815260200190815260200160002060008373ffffffffffffffffffffffffffffffffffffffff1673ffffffffffffffffffffffffffffffffffffffff16815260200190815260200160002060009054906101000a900460ff16905092915050565b3373ffffffffffffffffffffffffffffffffffffffff16600a60009054906101000a900473ffffffffffffffffffffffffffffffffffffffff1673ffffffffffffffffffffffffffffffffffffffff1614611627576040517f08c379a000000000000000000000000000000000000000000000000000000000815260040161161e90613628565b60405180910390fd5b8060098190555050565b60007f01ffc9a7000000000000000000000000000000000000000000000000000000007bffffffffffffffffffffffffffffffffffffffffffffffffffffffff1916827bffffffffffffffffffffffffffffffffffffffffffffffffffffffff1916149050919050565b60008073ffffffffffffffffffffffffffffffffffffffff166002600084815260200190815260200160002060009054906101000a900473ffffffffffffffffffffffffffffffffffffffff1673ffffffffffffffffffffffffffffffffffffffff1614159050919050565b600033905090565b816004600083815260200190815260200160002060006101000a81548173ffffffffffffffffffffffffffffffffffffffff021916908373ffffffffffffffffffffffffffffffffffffffff160217905550808273ffffffffffffffffffffffffffffffffffffffff16611782836108ce565b73ffffffffffffffffffffffffffffffffffffffff167f8c5be1e5ebec7d5bd14f71427d1e84f3dd0314c0f7b2291e5b200ac8c7c3b92560405160405180910390a45050565b600081600001549050919050565b60606000808467ffffffffffffffff81111561181b577f4e487b7100000000000000000000000000000000000000000000000000000000600052604160045260246000fd5b60405190808252806020026020018201604052801561185457816020015b6118416128d6565b8152602001906001900390816118395790505b50905060005b84811015611a50573373ffffffffffffffffffffffffffffffffffffffff16600b600060018461188a91906137b9565b815260200190815260200160002060020160009054906101000a900473ffffffffffffffffffffffffffffffffffffffff1673ffffffffffffffffffffffffffffffffffffffff161415611a3d5760006001826118e791906137b9565b90506000600b60008381526020019081526020016000209050806040518060a0016040529081600082015481526020016001820160009054906101000a900473ffffffffffffffffffffffffffffffffffffffff1673ffffffffffffffffffffffffffffffffffffffff1673ffffffffffffffffffffffffffffffffffffffff1681526020016002820160009054906101000a900473ffffffffffffffffffffffffffffffffffffffff1673ffffffffffffffffffffffffffffffffffffffff1673ffffffffffffffffffffffffffffffffffffffff168152602001600382015481526020016004820160009054906101000a900460ff161515151581525050848681518110611a20577f4e487b7100000000000000000000000000000000000000000000000000000000600052603260045260246000fd5b6020026020010181905250600185611a3891906137b9565b945050505b8080611a489061399f565b91505061185a565b50809250505092915050565b6000611a678261169b565b611aa6576040517f08c379a0000000000000000000000000000000000000000000000000000000008152600401611a9d90613488565b60405180910390fd5b6000611ab1836108ce565b90508073ffffffffffffffffffffffffffffffffffffffff168473ffffffffffffffffffffffffffffffffffffffff161480611b2057508373ffffffffffffffffffffffffffffffffffffffff16611b0884610664565b73ffffffffffffffffffffffffffffffffffffffff16145b80611b315750611b308185611503565b5b91505092915050565b8273ffffffffffffffffffffffffffffffffffffffff16611b5a826108ce565b73ffffffffffffffffffffffffffffffffffffffff1614611bb0576040517f08c379a0000000000000000000000000000000000000000000000000000000008152600401611ba7906133e8565b60405180910390fd5b600073ffffffffffffffffffffffffffffffffffffffff168273ffffffffffffffffffffffffffffffffffffffff161415611c20576040517f08c379a0000000000000000000000000000000000000000000000000000000008152600401611c1790613448565b60405180910390fd5b611c2b838383612330565b611c3660008261170f565b6001600360008573ffffffffffffffffffffffffffffffffffffffff1673ffffffffffffffffffffffffffffffffffffffff1681526020019081526020016000206000828254611c869190613840565b925050819055506001600360008473ffffffffffffffffffffffffffffffffffffffff1673ffffffffffffffffffffffffffffffffffffffff1681526020019081526020016000206000828254611cdd91906137b9565b92505081905550816002600083815260200190815260200160002060006101000a81548173ffffffffffffffffffffffffffffffffffffffff021916908373ffffffffffffffffffffffffffffffffffffffff160217905550808273ffffffffffffffffffffffffffffffffffffffff168473ffffffffffffffffffffffffffffffffffffffff167fddf252ad1be2c89b69c2b068fc378daa952ba7f163c4a11628f55a4df523b3ef60405160405180910390a4611d9c838383612335565b505050565b6001816000016000828254019250508190555050565b611dd182826040518060200160405280600081525061233a565b5050565b611dde8261169b565b611e1d576040517f08c379a0000000000000000000000000000000000000000000000000000000008152600401611e1490613508565b60405180910390fd5b80600660008481526020019081526020016000209080519060200190611e44929190612933565b505050565b60008111611e8c576040517f08c379a0000000000000000000000000000000000000000000000000000000008152600401611e8390613608565b60405180910390fd5b6009543414611ed0576040517f08c379a0000000000000000000000000000000000000000000000000000000008152600401611ec790613428565b60405180910390fd5b6040518060a001604052808381526020013373ffffffffffffffffffffffffffffffffffffffff1681526020013073ffffffffffffffffffffffffffffffffffffffff16815260200182815260200160001515815250600b60008481526020019081526020016000206000820151816000015560208201518160010160006101000a81548173ffffffffffffffffffffffffffffffffffffffff021916908373ffffffffffffffffffffffffffffffffffffffff16021790555060408201518160020160006101000a81548173ffffffffffffffffffffffffffffffffffffffff021916908373ffffffffffffffffffffffffffffffffffffffff1602179055506060820151816003015560808201518160040160006101000a81548160ff021916908315150217905550905050612009333084611b3a565b7fb640004f1d14576d0c209e240cad0410e0d8c0c33a09375861fbadae2588a98d823330846000604051612041959493929190613663565b60405180910390a15050565b8173ffffffffffffffffffffffffffffffffffffffff168373ffffffffffffffffffffffffffffffffffffffff1614156120bc576040517f08c379a00000000000000000000000000000000000000000000000000000000081526004016120b390613468565b60405180910390fd5b80600560008573ffffffffffffffffffffffffffffffffffffffff1673ffffffffffffffffffffffffffffffffffffffff16815260200190815260200160002060008473ffffffffffffffffffffffffffffffffffffffff1673ffffffffffffffffffffffffffffffffffffffff16815260200190815260200160002060006101000a81548160ff0219169083151502179055508173ffffffffffffffffffffffffffffffffffffffff168373ffffffffffffffffffffffffffffffffffffffff167f17307eab39ab6107e8899845ad3d59bd9653f200f220920489ca2b5937696c31836040516121ad919061334b565b60405180910390a3505050565b6121c5848484611b3a565b6121d184848484612395565b612210576040517f08c379a0000000000000000000000000000000000000000000000000000000008152600401612207906133c8565b60405180910390fd5b50505050565b606060405180602001604052806000815250905090565b60606122388261169b565b612277576040517f08c379a000000000000000000000000000000000000000000000000000000000815260040161226e90613588565b60405180910390fd5b6000612281612216565b905060008151116122a157604051806020016040528060008152506122cc565b806122ab8461252c565b6040516020016122bc92919061329e565b6040516020818303038152906040525b915050919050565b60008160000154905060008111612320576040517f08c379a0000000000000000000000000000000000000000000000000000000008152600401612317906133a8565b60405180910390fd5b6001810382600001819055505050565b505050565b505050565b61234483836126d9565b6123516000848484612395565b612390576040517f08c379a0000000000000000000000000000000000000000000000000000000008152600401612387906133c8565b60405180910390fd5b505050565b60006123b68473ffffffffffffffffffffffffffffffffffffffff166128b3565b1561251f578373ffffffffffffffffffffffffffffffffffffffff1663150b7a026123df611707565b8786866040518563ffffffff1660e01b815260040161240194939291906132dd565b602060405180830381600087803b15801561241b57600080fd5b505af192505050801561244c57506040513d601f19601f820116820180604052508101906124499190612cdf565b60015b6124cf573d806000811461247c576040519150601f19603f3d011682016040523d82523d6000602084013e612481565b606091505b506000815114156124c7576040517f08c379a00000000000000000000000000000000000000000000000000000000081526004016124be906133c8565b60405180910390fd5b805181602001fd5b63150b7a0260e01b7bffffffffffffffffffffffffffffffffffffffffffffffffffffffff1916817bffffffffffffffffffffffffffffffffffffffffffffffffffffffff191614915050612524565b600190505b949350505050565b60606000821415612574576040518060400160405280600181526020017f300000000000000000000000000000000000000000000000000000000000000081525090506126d4565b600082905060005b600082146125a657808061258f9061399f565b915050600a8261259f919061380f565b915061257c565b60008167ffffffffffffffff8111156125e8577f4e487b7100000000000000000000000000000000000000000000000000000000600052604160045260246000fd5b6040519080825280601f01601f19166020018201604052801561261a5781602001600182028036833780820191505090505b5090505b600085146126cd576001826126339190613840565b9150600a8561264291906139e8565b603061264e91906137b9565b60f81b81838151811061268a577f4e487b7100000000000000000000000000000000000000000000000000000000600052603260045260246000fd5b60200101907effffffffffffffffffffffffffffffffffffffffffffffffffffffffffffff1916908160001a905350600a856126c6919061380f565b945061261e565b8093505050505b919050565b600073ffffffffffffffffffffffffffffffffffffffff168273ffffffffffffffffffffffffffffffffffffffff161415612749576040517f08c379a000000000000000000000000000000000000000000000000000000000815260040161274090613528565b60405180910390fd5b6127528161169b565b15612792576040517f08c379a000000000000000000000000000000000000000000000000000000000815260040161278990613408565b60405180910390fd5b61279e60008383612330565b6001600360008473ffffffffffffffffffffffffffffffffffffffff1673ffffffffffffffffffffffffffffffffffffffff16815260200190815260200160002060008282546127ee91906137b9565b92505081905550816002600083815260200190815260200160002060006101000a81548173ffffffffffffffffffffffffffffffffffffffff021916908373ffffffffffffffffffffffffffffffffffffffff160217905550808273ffffffffffffffffffffffffffffffffffffffff16600073ffffffffffffffffffffffffffffffffffffffff167fddf252ad1be2c89b69c2b068fc378daa952ba7f163c4a11628f55a4df523b3ef60405160405180910390a46128af60008383612335565b5050565b6000808273ffffffffffffffffffffffffffffffffffffffff163b119050919050565b6040518060a0016040528060008152602001600073ffffffffffffffffffffffffffffffffffffffff168152602001600073ffffffffffffffffffffffffffffffffffffffff168152602001600081526020016000151581525090565b82805461293f9061393c565b90600052602060002090601f01602090048101928261296157600085556129a8565b82601f1061297a57805160ff19168380011785556129a8565b828001600101855582156129a8579182015b828111156129a757825182559160200191906001019061298c565b5b5090506129b591906129b9565b5090565b5b808211156129d25760008160009055506001016129ba565b5090565b60006129e96129e4846136db565b6136b6565b905082815260208101848484011115612a0157600080fd5b612a0c8482856138fa565b509392505050565b6000612a27612a228461370c565b6136b6565b905082815260208101848484011115612a3f57600080fd5b612a4a8482856138fa565b509392505050565b600081359050612a61816140f2565b92915050565b600081359050612a7681614109565b92915050565b600081359050612a8b81614120565b92915050565b600081519050612aa081614120565b92915050565b600082601f830112612ab757600080fd5b8135612ac78482602086016129d6565b91505092915050565b600082601f830112612ae157600080fd5b8135612af1848260208601612a14565b91505092915050565b600081359050612b0981614137565b92915050565b600060208284031215612b2157600080fd5b6000612b2f84828501612a52565b91505092915050565b60008060408385031215612b4b57600080fd5b6000612b5985828601612a52565b9250506020612b6a85828601612a52565b9150509250929050565b600080600060608486031215612b8957600080fd5b6000612b9786828701612a52565b9350506020612ba886828701612a52565b9250506040612bb986828701612afa565b9150509250925092565b60008060008060808587031215612bd957600080fd5b6000612be787828801612a52565b9450506020612bf887828801612a52565b9350506040612c0987828801612afa565b925050606085013567ffffffffffffffff811115612c2657600080fd5b612c3287828801612aa6565b91505092959194509250565b60008060408385031215612c5157600080fd5b6000612c5f85828601612a52565b9250506020612c7085828601612a67565b9150509250929050565b60008060408385031215612c8d57600080fd5b6000612c9b85828601612a52565b9250506020612cac85828601612afa565b9150509250929050565b600060208284031215612cc857600080fd5b6000612cd684828501612a7c565b91505092915050565b600060208284031215612cf157600080fd5b6000612cff84828501612a91565b91505092915050565b60008060408385031215612d1b57600080fd5b600083013567ffffffffffffffff811115612d3557600080fd5b612d4185828601612ad0565b9250506020612d5285828601612afa565b9150509250929050565b600060208284031215612d6e57600080fd5b6000612d7c84828501612afa565b91505092915050565b60008060408385031215612d9857600080fd5b6000612da685828601612afa565b9250506020612db785828601612afa565b9150509250929050565b6000612dcd8383613218565b60a08301905092915050565b612de281613886565b82525050565b612df181613874565b82525050565b6000612e028261374d565b612e0c818561377b565b9350612e178361373d565b8060005b83811015612e48578151612e2f8882612dc1565b9750612e3a8361376e565b925050600181019050612e1b565b5085935050505092915050565b612e5e81613898565b82525050565b612e6d81613898565b82525050565b6000612e7e82613758565b612e88818561378c565b9350612e98818560208601613909565b612ea181613ad5565b840191505092915050565b6000612eb782613763565b612ec1818561379d565b9350612ed1818560208601613909565b612eda81613ad5565b840191505092915050565b6000612ef082613763565b612efa81856137ae565b9350612f0a818560208601613909565b80840191505092915050565b6000612f2360418361379d565b9150612f2e82613ae6565b606082019050919050565b6000612f46601b8361379d565b9150612f5182613b5b565b602082019050919050565b6000612f6960328361379d565b9150612f7482613b84565b604082019050919050565b6000612f8c60258361379d565b9150612f9782613bd3565b604082019050919050565b6000612faf601c8361379d565b9150612fba82613c22565b602082019050919050565b6000612fd260228361379d565b9150612fdd82613c4b565b604082019050919050565b6000612ff560248361379d565b915061300082613c9a565b604082019050919050565b600061301860198361379d565b915061302382613ce9565b602082019050919050565b600061303b602c8361379d565b915061304682613d12565b604082019050919050565b600061305e60388361379d565b915061306982613d61565b604082019050919050565b6000613081602a8361379d565b915061308c82613db0565b604082019050919050565b60006130a460298361379d565b91506130af82613dff565b604082019050919050565b60006130c7602e8361379d565b91506130d282613e4e565b604082019050919050565b60006130ea60208361379d565b91506130f582613e9d565b602082019050919050565b600061310d60318361379d565b915061311882613ec6565b604082019050919050565b6000613130602c8361379d565b915061313b82613f15565b604082019050919050565b6000613153602f8361379d565b915061315e82613f64565b604082019050919050565b6000613176601f8361379d565b915061318182613fb3565b602082019050919050565b600061319960218361379d565b91506131a482613fdc565b604082019050919050565b60006131bc60318361379d565b91506131c78261402b565b604082019050919050565b60006131df60188361379d565b91506131ea8261407a565b602082019050919050565b600061320260398361379d565b915061320d826140a3565b604082019050919050565b60a08201600082015161322e6000850182613280565b5060208201516132416020850182612dd9565b5060408201516132546040850182612dd9565b5060608201516132676060850182613280565b50608082015161327a6080850182612e55565b50505050565b613289816138f0565b82525050565b613298816138f0565b82525050565b60006132aa8285612ee5565b91506132b68284612ee5565b91508190509392505050565b60006020820190506132d76000830184612de8565b92915050565b60006080820190506132f26000830187612de8565b6132ff6020830186612de8565b61330c604083018561328f565b818103606083015261331e8184612e73565b905095945050505050565b600060208201905081810360008301526133438184612df7565b905092915050565b60006020820190506133606000830184612e64565b92915050565b600060208201905081810360008301526133808184612eac565b905092915050565b600060208201905081810360008301526133a181612f16565b9050919050565b600060208201905081810360008301526133c181612f39565b9050919050565b600060208201905081810360008301526133e181612f5c565b9050919050565b6000602082019050818103600083015261340181612f7f565b9050919050565b6000602082019050818103600083015261342181612fa2565b9050919050565b6000602082019050818103600083015261344181612fc5565b9050919050565b6000602082019050818103600083015261346181612fe8565b9050919050565b600060208201905081810360008301526134818161300b565b9050919050565b600060208201905081810360008301526134a18161302e565b9050919050565b600060208201905081810360008301526134c181613051565b9050919050565b600060208201905081810360008301526134e181613074565b9050919050565b6000602082019050818103600083015261350181613097565b9050919050565b60006020820190508181036000830152613521816130ba565b9050919050565b60006020820190508181036000830152613541816130dd565b9050919050565b6000602082019050818103600083015261356181613100565b9050919050565b6000602082019050818103600083015261358181613123565b9050919050565b600060208201905081810360008301526135a181613146565b9050919050565b600060208201905081810360008301526135c181613169565b9050919050565b600060208201905081810360008301526135e18161318c565b9050919050565b60006020820190508181036000830152613601816131af565b9050919050565b60006020820190508181036000830152613621816131d2565b9050919050565b60006020820190508181036000830152613641816131f5565b9050919050565b600060208201905061365d600083018461328f565b92915050565b600060a082019050613678600083018861328f565b6136856020830187612de8565b6136926040830186612de8565b61369f606083018561328f565b6136ac6080830184612e64565b9695505050505050565b60006136c06136d1565b90506136cc828261396e565b919050565b6000604051905090565b600067ffffffffffffffff8211156136f6576136f5613aa6565b5b6136ff82613ad5565b9050602081019050919050565b600067ffffffffffffffff82111561372757613726613aa6565b5b61373082613ad5565b9050602081019050919050565b6000819050602082019050919050565b600081519050919050565b600081519050919050565b600081519050919050565b6000602082019050919050565b600082825260208201905092915050565b600082825260208201905092915050565b600082825260208201905092915050565b600081905092915050565b60006137c4826138f0565b91506137cf836138f0565b9250827fffffffffffffffffffffffffffffffffffffffffffffffffffffffffffffffff0382111561380457613803613a19565b5b828201905092915050565b600061381a826138f0565b9150613825836138f0565b92508261383557613834613a48565b5b828204905092915050565b600061384b826138f0565b9150613856836138f0565b92508282101561386957613868613a19565b5b828203905092915050565b600061387f826138d0565b9050919050565b6000613891826138d0565b9050919050565b60008115159050919050565b60007fffffffff0000000000000000000000000000000000000000000000000000000082169050919050565b600073ffffffffffffffffffffffffffffffffffffffff82169050919050565b6000819050919050565b82818337600083830152505050565b60005b8381101561392757808201518184015260208101905061390c565b83811115613936576000848401525b50505050565b6000600282049050600182168061395457607f821691505b6020821081141561396857613967613a77565b5b50919050565b61397782613ad5565b810181811067ffffffffffffffff8211171561399657613995613aa6565b5b80604052505050565b60006139aa826138f0565b91507fffffffffffffffffffffffffffffffffffffffffffffffffffffffffffffffff8214156139dd576139dc613a19565b5b600182019050919050565b60006139f3826138f0565b91506139fe836138f0565b925082613a0e57613a0d613a48565b5b828206905092915050565b7f4e487b7100000000000000000000000000000000000000000000000000000000600052601160045260246000fd5b7f4e487b7100000000000000000000000000000000000000000000000000000000600052601260045260246000fd5b7f4e487b7100000000000000000000000000000000000000000000000000000000600052602260045260246000fd5b7f4e487b7100000000000000000000000000000000000000000000000000000000600052604160045260246000fd5b6000601f19601f8301169050919050565b7f506c65617365207375626d6974207468652061736b696e67207072696365206960008201527f6e206f7264657220746f20636f6d706c6574652074686520707572636861736560208201527f2e00000000000000000000000000000000000000000000000000000000000000604082015250565b7f436f756e7465723a2064656372656d656e74206f766572666c6f770000000000600082015250565b7f4552433732313a207472616e7366657220746f206e6f6e20455243373231526560008201527f63656976657220696d706c656d656e7465720000000000000000000000000000602082015250565b7f4552433732313a207472616e736665722066726f6d20696e636f72726563742060008201527f6f776e6572000000000000000000000000000000000000000000000000000000602082015250565b7f4552433732313a20746f6b656e20616c7265616479206d696e74656400000000600082015250565b7f5072696365206d75737420626520657175616c20746f206c697374696e67206660008201527f6565000000000000000000000000000000000000000000000000000000000000602082015250565b7f4552433732313a207472616e7366657220746f20746865207a65726f2061646460008201527f7265737300000000000000000000000000000000000000000000000000000000602082015250565b7f4552433732313a20617070726f766520746f2063616c6c657200000000000000600082015250565b7f4552433732313a206f70657261746f7220717565727920666f72206e6f6e657860008201527f697374656e7420746f6b656e0000000000000000000000000000000000000000602082015250565b7f4552433732313a20617070726f76652063616c6c6572206973206e6f74206f7760008201527f6e6572206e6f7220617070726f76656420666f7220616c6c0000000000000000602082015250565b7f4552433732313a2062616c616e636520717565727920666f7220746865207a6560008201527f726f206164647265737300000000000000000000000000000000000000000000602082015250565b7f4552433732313a206f776e657220717565727920666f72206e6f6e657869737460008201527f656e7420746f6b656e0000000000000000000000000000000000000000000000602082015250565b7f45524337323155524953746f726167653a2055524920736574206f66206e6f6e60008201527f6578697374656e7420746f6b656e000000000000000000000000000000000000602082015250565b7f4552433732313a206d696e7420746f20746865207a65726f2061646472657373600082015250565b7f45524337323155524953746f726167653a2055524920717565727920666f722060008201527f6e6f6e6578697374656e7420746f6b656e000000000000000000000000000000602082015250565b7f4552433732313a20617070726f76656420717565727920666f72206e6f6e657860008201527f697374656e7420746f6b656e0000000000000000000000000000000000000000602082015250565b7f4552433732314d657461646174613a2055524920717565727920666f72206e6f60008201527f6e6578697374656e7420746f6b656e0000000000000000000000000000000000602082015250565b7f4f6e6c79204e4654206f776e65722063616e20726573656c6c2061204e465400600082015250565b7f4552433732313a20617070726f76616c20746f2063757272656e74206f776e6560008201527f7200000000000000000000000000000000000000000000000000000000000000602082015250565b7f4552433732313a207472616e736665722063616c6c6572206973206e6f74206f60008201527f776e6572206e6f7220617070726f766564000000000000000000000000000000602082015250565b7f5072696365206d75737420686967686572207468616e20300000000000000000600082015250565b7f4f6e6c79206f776e6572206f66204e4654204d61726b6574706c61636520636160008201527f6e2075706461746520746865206c697374696e67206665652e00000000000000602082015250565b6140fb81613874565b811461410657600080fd5b50565b61411281613898565b811461411d57600080fd5b50565b614129816138a4565b811461413457600080fd5b50565b614140816138f0565b811461414b57600080fd5b5056fea2646970667358221220b6ce74f64a69b050c111e755e6fa09f7dcf7fb9c9a6d93e9787e3dc4335ddd1164736f6c63430008040033",
  "linkReferences": {},
  "deployedLinkReferences": {}
}